{"abi":[{"type":"constructor","inputs":[{"name":"_gameNFTAddress","type":"address","internalType":"address"},{"name":"_villageCoinAddress","type":"address","internalType":"address"}],"stateMutability":"nonpayable"},{"type":"function","name":"TRADE_PRICE","inputs":[],"outputs":[{"name":"","type":"uint256","internalType":"uint256"}],"stateMutability":"view"},{"type":"function","name":"acceptTradeRequest","inputs":[{"name":"_tokenId","type":"uint256","internalType":"uint256"}],"outputs":[],"stateMutability":"nonpayable"},{"type":"function","name":"cancelTradeRequest","inputs":[{"name":"_tokenId","type":"uint256","internalType":"uint256"}],"outputs":[],"stateMutability":"nonpayable"},{"type":"function","name":"createTradeRequest","inputs":[{"name":"_tokenId","type":"uint256","internalType":"uint256"}],"outputs":[],"stateMutability":"nonpayable"},{"type":"function","name":"gameNFT","inputs":[],"outputs":[{"name":"","type":"address","internalType":"contract IERC721"}],"stateMutability":"view"},{"type":"function","name":"tradeRequests","inputs":[{"name":"","type":"uint256","internalType":"uint256"}],"outputs":[{"name":"buyer","type":"address","internalType":"address"},{"name":"tokenId","type":"uint256","internalType":"uint256"},{"name":"isActive","type":"bool","internalType":"bool"}],"stateMutability":"view"},{"type":"function","name":"villageCoin","inputs":[],"outputs":[{"name":"","type":"address","internalType":"contract IERC20"}],"stateMutability":"view"},{"type":"event","name":"TradeCompleted","inputs":[{"name":"buyer","type":"address","indexed":true,"internalType":"address"},{"name":"seller","type":"address","indexed":true,"internalType":"address"},{"name":"tokenId","type":"uint256","indexed":true,"internalType":"uint256"},{"name":"price","type":"uint256","indexed":false,"internalType":"uint256"}],"anonymous":false},{"type":"event","name":"TradeRequestCancelled","inputs":[{"name":"buyer","type":"address","indexed":true,"internalType":"address"},{"name":"tokenId","type":"uint256","indexed":true,"internalType":"uint256"}],"anonymous":false},{"type":"event","name":"TradeRequestCreated","inputs":[{"name":"buyer","type":"address","indexed":true,"internalType":"address"},{"name":"tokenId","type":"uint256","indexed":true,"internalType":"uint256"}],"anonymous":false},{"type":"error","name":"ReentrancyGuardReentrantCall","inputs":[]}],"bytecode":{"object":"0x608060405234801561000f575f5ffd5b5060405161165d38038061165d8339818101604052810190610031919061016b565b600161004f6100446100db60201b60201c565b61010460201b60201c565b5f0181905550815f5f6101000a81548173ffffffffffffffffffffffffffffffffffffffff021916908373ffffffffffffffffffffffffffffffffffffffff1602179055508060015f6101000a81548173ffffffffffffffffffffffffffffffffffffffff021916908373ffffffffffffffffffffffffffffffffffffffff16021790555050506101a9565b5f7f9b779b17422d0df92223018b32b4d1fa46e071723d6817e2486d003becc55f005f1b905090565b5f819050919050565b5f5ffd5b5f73ffffffffffffffffffffffffffffffffffffffff82169050919050565b5f61013a82610111565b9050919050565b61014a81610130565b8114610154575f5ffd5b50565b5f8151905061016581610141565b92915050565b5f5f604083850312156101815761018061010d565b5b5f61018e85828601610157565b925050602061019f85828601610157565b9150509250929050565b6114a7806101b65f395ff3fe608060405234801561000f575f5ffd5b506004361061007b575f3560e01c8063cfb5a43511610059578063cfb5a435146100d5578063d42d79ec146100f3578063e6c4181f14610125578063e9f8840f146101435761007b565b80635b32d1b21461007f5780636033e2e11461009b57806372b57317146100b9575b5f5ffd5b61009960048036038101906100949190610d05565b61015f565b005b6100a361059b565b6040516100b09190610daa565b60405180910390f35b6100d360048036038101906100ce9190610d05565b6105c0565b005b6100dd610a2a565b6040516100ea9190610de3565b60405180910390f35b61010d60048036038101906101089190610d05565b610a4e565b60405161011c93929190610e45565b60405180910390f35b61012d610a9f565b60405161013a9190610e7a565b60405180910390f35b61015d60048036038101906101589190610d05565b610aac565b005b610167610c03565b3373ffffffffffffffffffffffffffffffffffffffff165f5f9054906101000a900473ffffffffffffffffffffffffffffffffffffffff1673ffffffffffffffffffffffffffffffffffffffff16636352211e836040518263ffffffff1660e01b81526004016101d79190610e7a565b602060405180830381865afa1580156101f2573d5f5f3e3d5ffd5b505050506040513d601f19601f820116820180604052508101906102169190610ebd565b73ffffffffffffffffffffffffffffffffffffffff160361026c576040517f08c379a000000000000000000000000000000000000000000000000000000000815260040161026390610f68565b60405180910390fd5b60025f8281526020019081526020015f206002015f9054906101000a900460ff16156102cd576040517f08c379a00000000000000000000000000000000000000000000000000000000081526004016102c490610ff6565b60405180910390fd5b68056bc75e2d6310000060015f9054906101000a900473ffffffffffffffffffffffffffffffffffffffff1673ffffffffffffffffffffffffffffffffffffffff166370a08231336040518263ffffffff1660e01b81526004016103319190611014565b602060405180830381865afa15801561034c573d5f5f3e3d5ffd5b505050506040513d601f19601f820116820180604052508101906103709190611041565b10156103b1576040517f08c379a00000000000000000000000000000000000000000000000000000000081526004016103a8906110dc565b60405180910390fd5b68056bc75e2d6310000060015f9054906101000a900473ffffffffffffffffffffffffffffffffffffffff1673ffffffffffffffffffffffffffffffffffffffff1663dd62ed3e33306040518363ffffffff1660e01b81526004016104179291906110fa565b602060405180830381865afa158015610432573d5f5f3e3d5ffd5b505050506040513d601f19601f820116820180604052508101906104569190611041565b1015610497576040517f08c379a000000000000000000000000000000000000000000000000000000000815260040161048e90611191565b60405180910390fd5b60405180606001604052803373ffffffffffffffffffffffffffffffffffffffff1681526020018281526020016001151581525060025f8381526020019081526020015f205f820151815f015f6101000a81548173ffffffffffffffffffffffffffffffffffffffff021916908373ffffffffffffffffffffffffffffffffffffffff160217905550602082015181600101556040820151816002015f6101000a81548160ff021916908315150217905550905050803373ffffffffffffffffffffffffffffffffffffffff167f7dd86635e66631e0c90a366b5fdc407cef41a40bdb7e9f4d3457094843966d1760405160405180910390a3610598610c25565b50565b60015f9054906101000a900473ffffffffffffffffffffffffffffffffffffffff1681565b6105c8610c03565b5f60025f8381526020019081526020015f2090505f815f015f9054906101000a900473ffffffffffffffffffffffffffffffffffffffff1690505f339050826002015f9054906101000a900460ff16610656576040517f08c379a000000000000000000000000000000000000000000000000000000000815260040161064d9061121f565b60405180910390fd5b8073ffffffffffffffffffffffffffffffffffffffff165f5f9054906101000a900473ffffffffffffffffffffffffffffffffffffffff1673ffffffffffffffffffffffffffffffffffffffff16636352211e866040518263ffffffff1660e01b81526004016106c69190610e7a565b602060405180830381865afa1580156106e1573d5f5f3e3d5ffd5b505050506040513d601f19601f820116820180604052508101906107059190610ebd565b73ffffffffffffffffffffffffffffffffffffffff161461075b576040517f08c379a0000000000000000000000000000000000000000000000000000000008152600401610752906112ad565b60405180910390fd5b3073ffffffffffffffffffffffffffffffffffffffff165f5f9054906101000a900473ffffffffffffffffffffffffffffffffffffffff1673ffffffffffffffffffffffffffffffffffffffff1663081812fc866040518263ffffffff1660e01b81526004016107cb9190610e7a565b602060405180830381865afa1580156107e6573d5f5f3e3d5ffd5b505050506040513d601f19601f8201168201806040525081019061080a9190610ebd565b73ffffffffffffffffffffffffffffffffffffffff1614610860576040517f08c379a00000000000000000000000000000000000000000000000000000000081526004016108579061133b565b60405180910390fd5b5f836002015f6101000a81548160ff02191690831515021790555060015f9054906101000a900473ffffffffffffffffffffffffffffffffffffffff1673ffffffffffffffffffffffffffffffffffffffff166323b872dd838368056bc75e2d631000006040518463ffffffff1660e01b81526004016108e293929190611359565b6020604051808303815f875af11580156108fe573d5f5f3e3d5ffd5b505050506040513d601f19601f8201168201806040525081019061092291906113b8565b505f5f9054906101000a900473ffffffffffffffffffffffffffffffffffffffff1673ffffffffffffffffffffffffffffffffffffffff166323b872dd8284876040518463ffffffff1660e01b815260040161098093929190611359565b5f604051808303815f87803b158015610997575f5ffd5b505af11580156109a9573d5f5f3e3d5ffd5b50505050838173ffffffffffffffffffffffffffffffffffffffff168373ffffffffffffffffffffffffffffffffffffffff167f35c06e2c02cc93628588ec67d74925fa30de5c693ea264ec67458bb0b65c3bf168056bc75e2d63100000604051610a149190610e7a565b60405180910390a4505050610a27610c25565b50565b5f5f9054906101000a900473ffffffffffffffffffffffffffffffffffffffff1681565b6002602052805f5260405f205f91509050805f015f9054906101000a900473ffffffffffffffffffffffffffffffffffffffff1690806001015490806002015f9054906101000a900460ff16905083565b68056bc75e2d6310000081565b5f60025f8381526020019081526020015f209050806002015f9054906101000a900460ff16610b10576040517f08c379a0000000000000000000000000000000000000000000000000000000008152600401610b079061121f565b60405180910390fd5b3373ffffffffffffffffffffffffffffffffffffffff16815f015f9054906101000a900473ffffffffffffffffffffffffffffffffffffffff1673ffffffffffffffffffffffffffffffffffffffff1614610ba0576040517f08c379a0000000000000000000000000000000000000000000000000000000008152600401610b9790611453565b60405180910390fd5b5f816002015f6101000a81548160ff021916908315150217905550813373ffffffffffffffffffffffffffffffffffffffff167f4bde2a4904cf7c45cc2d8b67f980b49155148e99415cc83914abf6e58beaa80360405160405180910390a35050565b610c0b610c3f565b6002610c1d610c18610c80565b610ca9565b5f0181905550565b6001610c37610c32610c80565b610ca9565b5f0181905550565b610c47610cb2565b15610c7e576040517f3ee5aeb500000000000000000000000000000000000000000000000000000000815260040160405180910390fd5b565b5f7f9b779b17422d0df92223018b32b4d1fa46e071723d6817e2486d003becc55f005f1b905090565b5f819050919050565b5f6002610cc5610cc0610c80565b610ca9565b5f015414905090565b5f5ffd5b5f819050919050565b610ce481610cd2565b8114610cee575f5ffd5b50565b5f81359050610cff81610cdb565b92915050565b5f60208284031215610d1a57610d19610cce565b5b5f610d2784828501610cf1565b91505092915050565b5f73ffffffffffffffffffffffffffffffffffffffff82169050919050565b5f819050919050565b5f610d72610d6d610d6884610d30565b610d4f565b610d30565b9050919050565b5f610d8382610d58565b9050919050565b5f610d9482610d79565b9050919050565b610da481610d8a565b82525050565b5f602082019050610dbd5f830184610d9b565b92915050565b5f610dcd82610d79565b9050919050565b610ddd81610dc3565b82525050565b5f602082019050610df65f830184610dd4565b92915050565b5f610e0682610d30565b9050919050565b610e1681610dfc565b82525050565b610e2581610cd2565b82525050565b5f8115159050919050565b610e3f81610e2b565b82525050565b5f606082019050610e585f830186610e0d565b610e656020830185610e1c565b610e726040830184610e36565b949350505050565b5f602082019050610e8d5f830184610e1c565b92915050565b610e9c81610dfc565b8114610ea6575f5ffd5b50565b5f81519050610eb781610e93565b92915050565b5f60208284031215610ed257610ed1610cce565b5b5f610edf84828501610ea9565b91505092915050565b5f82825260208201905092915050565b7f596f752063616e6e6f74207265717565737420746f2062757920616e204e46545f8201527f20796f7520616c7265616479206f776e2e000000000000000000000000000000602082015250565b5f610f52603183610ee8565b9150610f5d82610ef8565b604082019050919050565b5f6020820190508181035f830152610f7f81610f46565b9050919050565b7f41207472616465207265717565737420666f722074686973204e4654206973205f8201527f616c7265616479206163746976652e0000000000000000000000000000000000602082015250565b5f610fe0602f83610ee8565b9150610feb82610f86565b604082019050919050565b5f6020820190508181035f83015261100d81610fd4565b9050919050565b5f6020820190506110275f830184610e0d565b92915050565b5f8151905061103b81610cdb565b92915050565b5f6020828403121561105657611055610cce565b5b5f6110638482850161102d565b91505092915050565b7f496e73756666696369656e742056696c6c616765436f696e2062616c616e63655f8201527f2e00000000000000000000000000000000000000000000000000000000000000602082015250565b5f6110c6602183610ee8565b91506110d18261106c565b604082019050919050565b5f6020820190508181035f8301526110f3816110ba565b9050919050565b5f60408201905061110d5f830185610e0d565b61111a6020830184610e0d565b9392505050565b7f54726164654d616e61676572206d75737420626520617070726f76656420746f5f8201527f207370656e642056696c6c616765436f696e2e00000000000000000000000000602082015250565b5f61117b603383610ee8565b915061118682611121565b604082019050919050565b5f6020820190508181035f8301526111a88161116f565b9050919050565b7f4e6f20616374697665207472616465207265717565737420666f7220746869735f8201527f204e46542e000000000000000000000000000000000000000000000000000000602082015250565b5f611209602583610ee8565b9150611214826111af565b604082019050919050565b5f6020820190508181035f830152611236816111fd565b9050919050565b7f596f7520617265206e6f7420746865206f776e6572206f662074686973204e465f8201527f542e000000000000000000000000000000000000000000000000000000000000602082015250565b5f611297602283610ee8565b91506112a28261123d565b604082019050919050565b5f6020820190508181035f8301526112c48161128b565b9050919050565b7f54726164654d616e61676572206d75737420626520617070726f76656420746f5f8201527f206d616e6167652074686973204e46542e000000000000000000000000000000602082015250565b5f611325603183610ee8565b9150611330826112cb565b604082019050919050565b5f6020820190508181035f83015261135281611319565b9050919050565b5f60608201905061136c5f830186610e0d565b6113796020830185610e0d565b6113866040830184610e1c565b949350505050565b61139781610e2b565b81146113a1575f5ffd5b50565b5f815190506113b28161138e565b92915050565b5f602082840312156113cd576113cc610cce565b5b5f6113da848285016113a4565b91505092915050565b7f596f7520617265206e6f74207468652063726561746f72206f662074686973205f8201527f747261646520726571756573742e000000000000000000000000000000000000602082015250565b5f61143d602e83610ee8565b9150611448826113e3565b604082019050919050565b5f6020820190508181035f83015261146a81611431565b905091905056fea2646970667358221220817edc61861ca1be4d51b3749ce713f2d51522e12f45d5874b279f4250b6fcd064736f6c634300081e0033","linkReferences":{}},"methodIdentifiers":{"TRADE_PRICE()":"e6c4181f","acceptTradeRequest(uint256)":"72b57317","cancelTradeRequest(uint256)":"e9f8840f","createTradeRequest(uint256)":"5b32d1b2","gameNFT()":"cfb5a435","tradeRequests(uint256)":"d42d79ec","villageCoin()":"6033e2e1"},"id":51}