{"abi":[{"type":"constructor","inputs":[{"name":"_villageCoinAddress","type":"address","internalType":"address"}],"stateMutability":"nonpayable"},{"type":"function","name":"createMultiplayerGame","inputs":[{"name":"_players","type":"address[]","internalType":"address[]"},{"name":"_stakeAmount","type":"uint256","internalType":"uint256"}],"outputs":[],"stateMutability":"nonpayable"},{"type":"function","name":"multiplayerGames","inputs":[{"name":"","type":"uint256","internalType":"uint256"}],"outputs":[{"name":"stakePerPlayer","type":"uint256","internalType":"uint256"},{"name":"prizePool","type":"uint256","internalType":"uint256"},{"name":"startTime","type":"uint256","internalType":"uint256"},{"name":"winner","type":"address","internalType":"address"},{"name":"isActive","type":"bool","internalType":"bool"}],"stateMutability":"view"},{"type":"function","name":"nextGameId","inputs":[],"outputs":[{"name":"","type":"uint256","internalType":"uint256"}],"stateMutability":"view"},{"type":"function","name":"owner","inputs":[],"outputs":[{"name":"","type":"address","internalType":"address"}],"stateMutability":"view"},{"type":"function","name":"renounceOwnership","inputs":[],"outputs":[],"stateMutability":"nonpayable"},{"type":"function","name":"settleMultiplayerGame","inputs":[{"name":"_gameId","type":"uint256","internalType":"uint256"},{"name":"_winner","type":"address","internalType":"address"}],"outputs":[],"stateMutability":"nonpayable"},{"type":"function","name":"settleSinglePlayerGame","inputs":[{"name":"_player","type":"address","internalType":"address"},{"name":"_actualDuration","type":"uint256","internalType":"uint256"}],"outputs":[],"stateMutability":"nonpayable"},{"type":"function","name":"singlePlayerStakes","inputs":[{"name":"","type":"address","internalType":"address"}],"outputs":[{"name":"amount","type":"uint256","internalType":"uint256"},{"name":"targetDuration","type":"uint256","internalType":"uint256"},{"name":"startTime","type":"uint256","internalType":"uint256"},{"name":"isActive","type":"bool","internalType":"bool"}],"stateMutability":"view"},{"type":"function","name":"stakeForSinglePlayer","inputs":[{"name":"_amount","type":"uint256","internalType":"uint256"},{"name":"_targetDuration","type":"uint256","internalType":"uint256"}],"outputs":[],"stateMutability":"nonpayable"},{"type":"function","name":"transferOwnership","inputs":[{"name":"newOwner","type":"address","internalType":"address"}],"outputs":[],"stateMutability":"nonpayable"},{"type":"function","name":"villageCoin","inputs":[],"outputs":[{"name":"","type":"address","internalType":"contract IERC20"}],"stateMutability":"view"},{"type":"event","name":"MultiplayerGameCreated","inputs":[{"name":"gameId","type":"uint256","indexed":true,"internalType":"uint256"},{"name":"players","type":"address[]","indexed":false,"internalType":"address[]"},{"name":"stakePerPlayer","type":"uint256","indexed":false,"internalType":"uint256"}],"anonymous":false},{"type":"event","name":"MultiplayerGameSettled","inputs":[{"name":"gameId","type":"uint256","indexed":true,"internalType":"uint256"},{"name":"winner","type":"address","indexed":true,"internalType":"address"},{"name":"prizePool","type":"uint256","indexed":false,"internalType":"uint256"}],"anonymous":false},{"type":"event","name":"OwnershipTransferred","inputs":[{"name":"previousOwner","type":"address","indexed":true,"internalType":"address"},{"name":"newOwner","type":"address","indexed":true,"internalType":"address"}],"anonymous":false},{"type":"event","name":"SinglePlayerGameSettled","inputs":[{"name":"player","type":"address","indexed":true,"internalType":"address"},{"name":"rewardAmount","type":"uint256","indexed":false,"internalType":"uint256"},{"name":"won","type":"bool","indexed":false,"internalType":"bool"}],"anonymous":false},{"type":"event","name":"StakeCreated","inputs":[{"name":"player","type":"address","indexed":true,"internalType":"address"},{"name":"amount","type":"uint256","indexed":false,"internalType":"uint256"},{"name":"targetDuration","type":"uint256","indexed":false,"internalType":"uint256"}],"anonymous":false},{"type":"error","name":"OwnableInvalidOwner","inputs":[{"name":"owner","type":"address","internalType":"address"}]},{"type":"error","name":"OwnableUnauthorizedAccount","inputs":[{"name":"account","type":"address","internalType":"address"}]},{"type":"error","name":"ReentrancyGuardReentrantCall","inputs":[]}],"bytecode":{"object":"0x608060405234801561000f575f5ffd5b50604051611f75380380611f7583398181016040528101906100319190610275565b335f73ffffffffffffffffffffffffffffffffffffffff168173ffffffffffffffffffffffffffffffffffffffff16036100a2575f6040517f1e4fbdf700000000000000000000000000000000000000000000000000000000815260040161009991906102af565b60405180910390fd5b6100b18161012460201b60201c565b5060016100d06100c56101e560201b60201c565b61020e60201b60201c565b5f01819055508060015f6101000a81548173ffffffffffffffffffffffffffffffffffffffff021916908373ffffffffffffffffffffffffffffffffffffffff1602179055506001600481905550506102c8565b5f5f5f9054906101000a900473ffffffffffffffffffffffffffffffffffffffff169050815f5f6101000a81548173ffffffffffffffffffffffffffffffffffffffff021916908373ffffffffffffffffffffffffffffffffffffffff1602179055508173ffffffffffffffffffffffffffffffffffffffff168173ffffffffffffffffffffffffffffffffffffffff167f8be0079c531659141344cd1fd0a4f28419497f9722a3daafe3b4186f6b6457e060405160405180910390a35050565b5f7f9b779b17422d0df92223018b32b4d1fa46e071723d6817e2486d003becc55f005f1b905090565b5f819050919050565b5f5ffd5b5f73ffffffffffffffffffffffffffffffffffffffff82169050919050565b5f6102448261021b565b9050919050565b6102548161023a565b811461025e575f5ffd5b50565b5f8151905061026f8161024b565b92915050565b5f6020828403121561028a57610289610217565b5b5f61029784828501610261565b91505092915050565b6102a98161023a565b82525050565b5f6020820190506102c25f8301846102a0565b92915050565b611ca0806102d55f395ff3fe608060405234801561000f575f5ffd5b50600436106100a7575f3560e01c8063759751381161006f578063759751381461013e5780638da5cb5b1461015a5780638f2b910c146101785780639430ef96146101ac578063b135bbb0146101c8578063f2fde38b146101e6576100a7565b8063011d60ae146100ab578063062604e2146100c75780636033e2e1146100fa57806362891fe414610118578063715018a614610134575b5f5ffd5b6100c560048036038101906100c09190611199565b610202565b005b6100e160048036038101906100dc91906111d7565b6103d6565b6040516100f1949392919061122b565b60405180910390f35b61010261040e565b60405161010f91906112c9565b60405180910390f35b610132600480360381019061012d91906112e2565b610433565b005b61013c6106e7565b005b61015860048036038101906101539190611320565b6106fa565b005b610162610944565b60405161016f919061136d565b60405180910390f35b610192600480360381019061018d9190611386565b61096b565b6040516101a39594939291906113b1565b60405180910390f35b6101c660048036038101906101c19190611463565b6109ca565b005b6101d0610dbe565b6040516101dd91906114c0565b60405180910390f35b61020060048036038101906101fb91906111d7565b610dc4565b005b61020a610e48565b610212610ecf565b5f60035f8481526020019081526020015f2090508060040160149054906101000a900460ff16610277576040517f08c379a000000000000000000000000000000000000000000000000000000000815260040161026e90611559565b60405180910390fd5b81816004015f6101000a81548173ffffffffffffffffffffffffffffffffffffffff021916908373ffffffffffffffffffffffffffffffffffffffff1602179055505f8160040160146101000a81548160ff02191690831515021790555060015f9054906101000a900473ffffffffffffffffffffffffffffffffffffffff1673ffffffffffffffffffffffffffffffffffffffff1663a9059cbb8383600201546040518363ffffffff1660e01b8152600401610335929190611577565b6020604051808303815f875af1158015610351573d5f5f3e3d5ffd5b505050506040513d601f19601f8201168201806040525081019061037591906115c8565b508173ffffffffffffffffffffffffffffffffffffffff16837f5204a312286cde29b17d7caf8cb686565402514984806d51d76a28dc59e7d90683600201546040516103c191906114c0565b60405180910390a3506103d2610ef1565b5050565b6002602052805f5260405f205f91509050805f015490806001015490806002015490806003015f9054906101000a900460ff16905084565b60015f9054906101000a900473ffffffffffffffffffffffffffffffffffffffff1681565b61043b610ecf565b5f821161047d576040517f08c379a000000000000000000000000000000000000000000000000000000000815260040161047490611663565b60405180910390fd5b60025f3373ffffffffffffffffffffffffffffffffffffffff1673ffffffffffffffffffffffffffffffffffffffff1681526020019081526020015f206003015f9054906101000a900460ff161561050a576040517f08c379a0000000000000000000000000000000000000000000000000000000008152600401610501906116f1565b60405180910390fd5b5f60015f9054906101000a900473ffffffffffffffffffffffffffffffffffffffff1673ffffffffffffffffffffffffffffffffffffffff166323b872dd3330866040518463ffffffff1660e01b81526004016105699392919061170f565b6020604051808303815f875af1158015610585573d5f5f3e3d5ffd5b505050506040513d601f19601f820116820180604052508101906105a991906115c8565b9050806105eb576040517f08c379a00000000000000000000000000000000000000000000000000000000081526004016105e29061178e565b60405180910390fd5b60405180608001604052808481526020018381526020014281526020016001151581525060025f3373ffffffffffffffffffffffffffffffffffffffff1673ffffffffffffffffffffffffffffffffffffffff1681526020019081526020015f205f820151815f015560208201518160010155604082015181600201556060820151816003015f6101000a81548160ff0219169083151502179055509050503373ffffffffffffffffffffffffffffffffffffffff167f072db3cafa6572052b0c3c566f5726ae74e0e6c44d5557b3523273a690aef83f84846040516106d29291906117ac565b60405180910390a2506106e3610ef1565b5050565b6106ef610e48565b6106f85f610f0b565b565b610702610e48565b61070a610ecf565b5f60025f8473ffffffffffffffffffffffffffffffffffffffff1673ffffffffffffffffffffffffffffffffffffffff1681526020019081526020015f209050806003015f9054906101000a900460ff1661079a576040517f08c379a00000000000000000000000000000000000000000000000000000000081526004016107919061181d565b60405180910390fd5b5f5f90505f5f9050826001015484116107d457600a600f845f01546107bf9190611868565b6107c991906118d6565b9150600190506107d8565b5f91505b60025f8673ffffffffffffffffffffffffffffffffffffffff1673ffffffffffffffffffffffffffffffffffffffff1681526020019081526020015f205f5f82015f9055600182015f9055600282015f9055600382015f6101000a81549060ff021916905550505f8211156108e55760015f9054906101000a900473ffffffffffffffffffffffffffffffffffffffff1673ffffffffffffffffffffffffffffffffffffffff1663a9059cbb86846040518363ffffffff1660e01b81526004016108a3929190611577565b6020604051808303815f875af11580156108bf573d5f5f3e3d5ffd5b505050506040513d601f19601f820116820180604052508101906108e391906115c8565b505b8473ffffffffffffffffffffffffffffffffffffffff167ffb29ed4adc52b498d20d9954a2047590c6fd74f9d12d27cff5ebf6aaeeb1613e838360405161092d929190611906565b60405180910390a2505050610940610ef1565b5050565b5f5f5f9054906101000a900473ffffffffffffffffffffffffffffffffffffffff16905090565b6003602052805f5260405f205f91509050806001015490806002015490806003015490806004015f9054906101000a900473ffffffffffffffffffffffffffffffffffffffff16908060040160149054906101000a900460ff16905085565b6109d2610e48565b60018383905011610a18576040517f08c379a0000000000000000000000000000000000000000000000000000000008152600401610a0f9061199d565b60405180910390fd5b5f8111610a5a576040517f08c379a0000000000000000000000000000000000000000000000000000000008152600401610a5190611663565b60405180910390fd5b5f60045490505f5f90505f5f90505b85859050811015610c2a575f868683818110610a8857610a876119bb565b5b9050602002016020810190610a9d91906111d7565b905060025f8273ffffffffffffffffffffffffffffffffffffffff1673ffffffffffffffffffffffffffffffffffffffff1681526020019081526020015f206003015f9054906101000a900460ff1615610b2c576040517f08c379a0000000000000000000000000000000000000000000000000000000008152600401610b2390611a58565b60405180910390fd5b5f60015f9054906101000a900473ffffffffffffffffffffffffffffffffffffffff1673ffffffffffffffffffffffffffffffffffffffff166323b872dd8330896040518463ffffffff1660e01b8152600401610b8b9392919061170f565b6020604051808303815f875af1158015610ba7573d5f5f3e3d5ffd5b505050506040513d601f19601f82011682018060405250810190610bcb91906115c8565b905080610c0d576040517f08c379a0000000000000000000000000000000000000000000000000000000008152600401610c0490611ae6565b60405180910390fd5b8584610c199190611b04565b935050508080600101915050610a69565b506040518060c001604052808686808060200260200160405190810160405280939291908181526020018383602002808284375f81840152601f19601f8201169050808301925050505050505081526020018481526020018281526020014281526020015f73ffffffffffffffffffffffffffffffffffffffff1681526020016001151581525060035f8481526020019081526020015f205f820151815f019080519060200190610cdc929190611062565b506020820151816001015560408201518160020155606082015181600301556080820151816004015f6101000a81548173ffffffffffffffffffffffffffffffffffffffff021916908373ffffffffffffffffffffffffffffffffffffffff16021790555060a08201518160040160146101000a81548160ff02191690831515021790555090505060045f815480929190610d7690611b37565b9190505550817fcf2a535d6ef00c9cbea8577a87bc568e81b0d4d51783b018fe91845200a19140868686604051610daf93929190611c3a565b60405180910390a25050505050565b60045481565b610dcc610e48565b5f73ffffffffffffffffffffffffffffffffffffffff168173ffffffffffffffffffffffffffffffffffffffff1603610e3c575f6040517f1e4fbdf7000000000000000000000000000000000000000000000000000000008152600401610e33919061136d565b60405180910390fd5b610e4581610f0b565b50565b610e50610fcc565b73ffffffffffffffffffffffffffffffffffffffff16610e6e610944565b73ffffffffffffffffffffffffffffffffffffffff1614610ecd57610e91610fcc565b6040517f118cdaa7000000000000000000000000000000000000000000000000000000008152600401610ec4919061136d565b60405180910390fd5b565b610ed7610fd3565b6002610ee9610ee4611014565b61103d565b5f0181905550565b6001610f03610efe611014565b61103d565b5f0181905550565b5f5f5f9054906101000a900473ffffffffffffffffffffffffffffffffffffffff169050815f5f6101000a81548173ffffffffffffffffffffffffffffffffffffffff021916908373ffffffffffffffffffffffffffffffffffffffff1602179055508173ffffffffffffffffffffffffffffffffffffffff168173ffffffffffffffffffffffffffffffffffffffff167f8be0079c531659141344cd1fd0a4f28419497f9722a3daafe3b4186f6b6457e060405160405180910390a35050565b5f33905090565b610fdb611046565b15611012576040517f3ee5aeb500000000000000000000000000000000000000000000000000000000815260040160405180910390fd5b565b5f7f9b779b17422d0df92223018b32b4d1fa46e071723d6817e2486d003becc55f005f1b905090565b5f819050919050565b5f6002611059611054611014565b61103d565b5f015414905090565b828054828255905f5260205f209081019282156110d8579160200282015b828111156110d7578251825f6101000a81548173ffffffffffffffffffffffffffffffffffffffff021916908373ffffffffffffffffffffffffffffffffffffffff16021790555091602001919060010190611080565b5b5090506110e591906110e9565b5090565b5b80821115611100575f815f9055506001016110ea565b5090565b5f5ffd5b5f5ffd5b5f819050919050565b61111e8161110c565b8114611128575f5ffd5b50565b5f8135905061113981611115565b92915050565b5f73ffffffffffffffffffffffffffffffffffffffff82169050919050565b5f6111688261113f565b9050919050565b6111788161115e565b8114611182575f5ffd5b50565b5f813590506111938161116f565b92915050565b5f5f604083850312156111af576111ae611104565b5b5f6111bc8582860161112b565b92505060206111cd85828601611185565b9150509250929050565b5f602082840312156111ec576111eb611104565b5b5f6111f984828501611185565b91505092915050565b61120b8161110c565b82525050565b5f8115159050919050565b61122581611211565b82525050565b5f60808201905061123e5f830187611202565b61124b6020830186611202565b6112586040830185611202565b611265606083018461121c565b95945050505050565b5f819050919050565b5f61129161128c6112878461113f565b61126e565b61113f565b9050919050565b5f6112a282611277565b9050919050565b5f6112b382611298565b9050919050565b6112c3816112a9565b82525050565b5f6020820190506112dc5f8301846112ba565b92915050565b5f5f604083850312156112f8576112f7611104565b5b5f6113058582860161112b565b92505060206113168582860161112b565b9150509250929050565b5f5f6040838503121561133657611335611104565b5b5f61134385828601611185565b92505060206113548582860161112b565b9150509250929050565b6113678161115e565b82525050565b5f6020820190506113805f83018461135e565b92915050565b5f6020828403121561139b5761139a611104565b5b5f6113a88482850161112b565b91505092915050565b5f60a0820190506113c45f830188611202565b6113d16020830187611202565b6113de6040830186611202565b6113eb606083018561135e565b6113f8608083018461121c565b9695505050505050565b5f5ffd5b5f5ffd5b5f5ffd5b5f5f83601f84011261142357611422611402565b5b8235905067ffffffffffffffff8111156114405761143f611406565b5b60208301915083602082028301111561145c5761145b61140a565b5b9250929050565b5f5f5f6040848603121561147a57611479611104565b5b5f84013567ffffffffffffffff81111561149757611496611108565b5b6114a38682870161140e565b935093505060206114b68682870161112b565b9150509250925092565b5f6020820190506114d35f830184611202565b92915050565b5f82825260208201905092915050565b7f47616d65206973206e6f7420616374697665206f7220646f6573206e6f7420655f8201527f7869737400000000000000000000000000000000000000000000000000000000602082015250565b5f6115436024836114d9565b915061154e826114e9565b604082019050919050565b5f6020820190508181035f83015261157081611537565b9050919050565b5f60408201905061158a5f83018561135e565b6115976020830184611202565b9392505050565b6115a781611211565b81146115b1575f5ffd5b50565b5f815190506115c28161159e565b92915050565b5f602082840312156115dd576115dc611104565b5b5f6115ea848285016115b4565b91505092915050565b7f5374616b6520616d6f756e74206d7573742062652067726561746572207468615f8201527f6e20300000000000000000000000000000000000000000000000000000000000602082015250565b5f61164d6023836114d9565b9150611658826115f3565b604082019050919050565b5f6020820190508181035f83015261167a81611641565b9050919050565b7f506c6179657220616c72656164792068617320616e20616374697665207374615f8201527f6b65000000000000000000000000000000000000000000000000000000000000602082015250565b5f6116db6022836114d9565b91506116e682611681565b604082019050919050565b5f6020820190508181035f830152611708816116cf565b9050919050565b5f6060820190506117225f83018661135e565b61172f602083018561135e565b61173c6040830184611202565b949350505050565b7f4552433230207472616e73666572206661696c656400000000000000000000005f82015250565b5f6117786015836114d9565b915061178382611744565b602082019050919050565b5f6020820190508181035f8301526117a58161176c565b9050919050565b5f6040820190506117bf5f830185611202565b6117cc6020830184611202565b9392505050565b7f4e6f20616374697665207374616b6520666f72207468697320706c61796572005f82015250565b5f611807601f836114d9565b9150611812826117d3565b602082019050919050565b5f6020820190508181035f830152611834816117fb565b9050919050565b7f4e487b71000000000000000000000000000000000000000000000000000000005f52601160045260245ffd5b5f6118728261110c565b915061187d8361110c565b925082820261188b8161110c565b915082820484148315176118a2576118a161183b565b5b5092915050565b7f4e487b71000000000000000000000000000000000000000000000000000000005f52601260045260245ffd5b5f6118e08261110c565b91506118eb8361110c565b9250826118fb576118fa6118a9565b5b828204905092915050565b5f6040820190506119195f830185611202565b611926602083018461121c565b9392505050565b7f4d756c7469706c617965722067616d65207265717569726573206174206c65615f8201527f7374203220706c61796572730000000000000000000000000000000000000000602082015250565b5f611987602c836114d9565b91506119928261192d565b604082019050919050565b5f6020820190508181035f8301526119b48161197b565b9050919050565b7f4e487b71000000000000000000000000000000000000000000000000000000005f52603260045260245ffd5b7f4120706c617965722068617320616e206163746976652073696e676c652d706c5f8201527f61796572207374616b6500000000000000000000000000000000000000000000602082015250565b5f611a42602a836114d9565b9150611a4d826119e8565b604082019050919050565b5f6020820190508181035f830152611a6f81611a36565b9050919050565b7f4552433230207472616e73666572206661696c656420666f72206f6e65206f665f8201527f2074686520706c61796572730000000000000000000000000000000000000000602082015250565b5f611ad0602c836114d9565b9150611adb82611a76565b604082019050919050565b5f6020820190508181035f830152611afd81611ac4565b9050919050565b5f611b0e8261110c565b9150611b198361110c565b9250828201905080821115611b3157611b3061183b565b5b92915050565b5f611b418261110c565b91507fffffffffffffffffffffffffffffffffffffffffffffffffffffffffffffffff8203611b7357611b7261183b565b5b600182019050919050565b5f82825260208201905092915050565b5f819050919050565b611ba08161115e565b82525050565b5f611bb18383611b97565b60208301905092915050565b5f611bcb6020840184611185565b905092915050565b5f602082019050919050565b5f611bea8385611b7e565b9350611bf582611b8e565b805f5b85811015611c2d57611c0a8284611bbd565b611c148882611ba6565b9750611c1f83611bd3565b925050600181019050611bf8565b5085925050509392505050565b5f6040820190508181035f830152611c53818587611bdf565b9050611c626020830184611202565b94935050505056fea2646970667358221220d07971ed5173d46c49c6223d03fdb04fb0994ecfa00e588986f4b77869a637dd64736f6c634300081e0033","linkReferences":{}},"methodIdentifiers":{"createMultiplayerGame(address[],uint256)":"9430ef96","multiplayerGames(uint256)":"8f2b910c","nextGameId()":"b135bbb0","owner()":"8da5cb5b","renounceOwnership()":"715018a6","settleMultiplayerGame(uint256,address)":"011d60ae","settleSinglePlayerGame(address,uint256)":"75975138","singlePlayerStakes(address)":"062604e2","stakeForSinglePlayer(uint256,uint256)":"62891fe4","transferOwnership(address)":"f2fde38b","villageCoin()":"6033e2e1"},"id":50}