{"abi":[{"type":"constructor","inputs":[],"stateMutability":"nonpayable"},{"type":"function","name":"approve","inputs":[{"name":"to","type":"address","internalType":"address"},{"name":"tokenId","type":"uint256","internalType":"uint256"}],"outputs":[],"stateMutability":"nonpayable"},{"type":"function","name":"balanceOf","inputs":[{"name":"owner","type":"address","internalType":"address"}],"outputs":[{"name":"","type":"uint256","internalType":"uint256"}],"stateMutability":"view"},{"type":"function","name":"getApproved","inputs":[{"name":"tokenId","type":"uint256","internalType":"uint256"}],"outputs":[{"name":"","type":"address","internalType":"address"}],"stateMutability":"view"},{"type":"function","name":"getItem","inputs":[{"name":"tokenId","type":"uint256","internalType":"uint256"}],"outputs":[{"name":"","type":"string","internalType":"string"},{"name":"","type":"string","internalType":"string"},{"name":"","type":"address","internalType":"address"},{"name":"","type":"string","internalType":"string"}],"stateMutability":"view"},{"type":"function","name":"isApprovedForAll","inputs":[{"name":"owner","type":"address","internalType":"address"},{"name":"operator","type":"address","internalType":"address"}],"outputs":[{"name":"","type":"bool","internalType":"bool"}],"stateMutability":"view"},{"type":"function","name":"items","inputs":[{"name":"","type":"uint256","internalType":"uint256"}],"outputs":[{"name":"name","type":"string","internalType":"string"},{"name":"description","type":"string","internalType":"string"}],"stateMutability":"view"},{"type":"function","name":"mintItemTo","inputs":[{"name":"to","type":"address","internalType":"address"},{"name":"tokenURI","type":"string","internalType":"string"},{"name":"name_","type":"string","internalType":"string"},{"name":"description_","type":"string","internalType":"string"}],"outputs":[{"name":"","type":"uint256","internalType":"uint256"}],"stateMutability":"nonpayable"},{"type":"function","name":"name","inputs":[],"outputs":[{"name":"","type":"string","internalType":"string"}],"stateMutability":"view"},{"type":"function","name":"ownerOf","inputs":[{"name":"tokenId","type":"uint256","internalType":"uint256"}],"outputs":[{"name":"","type":"address","internalType":"address"}],"stateMutability":"view"},{"type":"function","name":"safeTransferFrom","inputs":[{"name":"from","type":"address","internalType":"address"},{"name":"to","type":"address","internalType":"address"},{"name":"tokenId","type":"uint256","internalType":"uint256"}],"outputs":[],"stateMutability":"nonpayable"},{"type":"function","name":"safeTransferFrom","inputs":[{"name":"from","type":"address","internalType":"address"},{"name":"to","type":"address","internalType":"address"},{"name":"tokenId","type":"uint256","internalType":"uint256"},{"name":"data","type":"bytes","internalType":"bytes"}],"outputs":[],"stateMutability":"nonpayable"},{"type":"function","name":"setApprovalForAll","inputs":[{"name":"operator","type":"address","internalType":"address"},{"name":"approved","type":"bool","internalType":"bool"}],"outputs":[],"stateMutability":"nonpayable"},{"type":"function","name":"supportsInterface","inputs":[{"name":"interfaceId","type":"bytes4","internalType":"bytes4"}],"outputs":[{"name":"","type":"bool","internalType":"bool"}],"stateMutability":"view"},{"type":"function","name":"symbol","inputs":[],"outputs":[{"name":"","type":"string","internalType":"string"}],"stateMutability":"view"},{"type":"function","name":"tokenURI","inputs":[{"name":"tokenId","type":"uint256","internalType":"uint256"}],"outputs":[{"name":"","type":"string","internalType":"string"}],"stateMutability":"view"},{"type":"function","name":"transferFrom","inputs":[{"name":"from","type":"address","internalType":"address"},{"name":"to","type":"address","internalType":"address"},{"name":"tokenId","type":"uint256","internalType":"uint256"}],"outputs":[],"stateMutability":"nonpayable"},{"type":"event","name":"Approval","inputs":[{"name":"owner","type":"address","indexed":true,"internalType":"address"},{"name":"approved","type":"address","indexed":true,"internalType":"address"},{"name":"tokenId","type":"uint256","indexed":true,"internalType":"uint256"}],"anonymous":false},{"type":"event","name":"ApprovalForAll","inputs":[{"name":"owner","type":"address","indexed":true,"internalType":"address"},{"name":"operator","type":"address","indexed":true,"internalType":"address"},{"name":"approved","type":"bool","indexed":false,"internalType":"bool"}],"anonymous":false},{"type":"event","name":"BatchMetadataUpdate","inputs":[{"name":"_fromTokenId","type":"uint256","indexed":false,"internalType":"uint256"},{"name":"_toTokenId","type":"uint256","indexed":false,"internalType":"uint256"}],"anonymous":false},{"type":"event","name":"ItemMinted","inputs":[{"name":"to","type":"address","indexed":true,"internalType":"address"},{"name":"id","type":"uint256","indexed":true,"internalType":"uint256"},{"name":"name","type":"string","indexed":false,"internalType":"string"}],"anonymous":false},{"type":"event","name":"MetadataUpdate","inputs":[{"name":"_tokenId","type":"uint256","indexed":false,"internalType":"uint256"}],"anonymous":false},{"type":"event","name":"Transfer","inputs":[{"name":"from","type":"address","indexed":true,"internalType":"address"},{"name":"to","type":"address","indexed":true,"internalType":"address"},{"name":"tokenId","type":"uint256","indexed":true,"internalType":"uint256"}],"anonymous":false},{"type":"error","name":"ERC721IncorrectOwner","inputs":[{"name":"sender","type":"address","internalType":"address"},{"name":"tokenId","type":"uint256","internalType":"uint256"},{"name":"owner","type":"address","internalType":"address"}]},{"type":"error","name":"ERC721InsufficientApproval","inputs":[{"name":"operator","type":"address","internalType":"address"},{"name":"tokenId","type":"uint256","internalType":"uint256"}]},{"type":"error","name":"ERC721InvalidApprover","inputs":[{"name":"approver","type":"address","internalType":"address"}]},{"type":"error","name":"ERC721InvalidOperator","inputs":[{"name":"operator","type":"address","internalType":"address"}]},{"type":"error","name":"ERC721InvalidOwner","inputs":[{"name":"owner","type":"address","internalType":"address"}]},{"type":"error","name":"ERC721InvalidReceiver","inputs":[{"name":"receiver","type":"address","internalType":"address"}]},{"type":"error","name":"ERC721InvalidSender","inputs":[{"name":"sender","type":"address","internalType":"address"}]},{"type":"error","name":"ERC721NonexistentToken","inputs":[{"name":"tokenId","type":"uint256","internalType":"uint256"}]}],"bytecode":{"object":"0x608060405234801561000f575f5ffd5b506040518060400160405280600a81526020017f4563686f65734974656d000000000000000000000000000000000000000000008152506040518060400160405280600581526020017f454954454d000000000000000000000000000000000000000000000000000000815250815f908161008a91906102df565b50806001908161009a91906102df565b5050506103ae565b5f81519050919050565b7f4e487b71000000000000000000000000000000000000000000000000000000005f52604160045260245ffd5b7f4e487b71000000000000000000000000000000000000000000000000000000005f52602260045260245ffd5b5f600282049050600182168061011d57607f821691505b6020821081036101305761012f6100d9565b5b50919050565b5f819050815f5260205f209050919050565b5f6020601f8301049050919050565b5f82821b905092915050565b5f600883026101927fffffffffffffffffffffffffffffffffffffffffffffffffffffffffffffffff82610157565b61019c8683610157565b95508019841693508086168417925050509392505050565b5f819050919050565b5f819050919050565b5f6101e06101db6101d6846101b4565b6101bd565b6101b4565b9050919050565b5f819050919050565b6101f9836101c6565b61020d610205826101e7565b848454610163565b825550505050565b5f5f905090565b610224610215565b61022f8184846101f0565b505050565b5b81811015610252576102475f8261021c565b600181019050610235565b5050565b601f8211156102975761026881610136565b61027184610148565b81016020851015610280578190505b61029461028c85610148565b830182610234565b50505b505050565b5f82821c905092915050565b5f6102b75f198460080261029c565b1980831691505092915050565b5f6102cf83836102a8565b9150826002028217905092915050565b6102e8826100a2565b67ffffffffffffffff811115610301576103006100ac565b5b61030b8254610106565b610316828285610256565b5f60209050601f831160018114610347575f8415610335578287015190505b61033f85826102c4565b8655506103a6565b601f19841661035586610136565b5f5b8281101561037c57848901518255600182019150602085019450602081019050610357565b868310156103995784890151610395601f8916826102a8565b8355505b6001600288020188555050505b505050505050565b6127b6806103bb5f395ff3fe608060405234801561000f575f5ffd5b50600436106100fe575f3560e01c806370a0823111610095578063b88d4fde11610064578063b88d4fde146102d1578063bfb231d2146102ed578063c87b56dd1461031e578063e985e9c51461034e576100fe565b806370a0823114610237578063933e88581461026757806395d89b4114610297578063a22cb465146102b5576100fe565b806323b872dd116100d157806323b872dd1461019c5780633129e773146101b857806342842e0e146101eb5780636352211e14610207576100fe565b806301ffc9a71461010257806306fdde0314610132578063081812fc14610150578063095ea7b314610180575b5f5ffd5b61011c60048036038101906101179190611b9b565b61037e565b6040516101299190611be0565b60405180910390f35b61013a6103de565b6040516101479190611c69565b60405180910390f35b61016a60048036038101906101659190611cbc565b61046d565b6040516101779190611d26565b60405180910390f35b61019a60048036038101906101959190611d69565b610488565b005b6101b660048036038101906101b19190611da7565b61049e565b005b6101d260048036038101906101cd9190611cbc565b61059d565b6040516101e29493929190611df7565b60405180910390f35b61020560048036038101906102009190611da7565b6106f4565b005b610221600480360381019061021c9190611cbc565b610713565b60405161022e9190611d26565b60405180910390f35b610251600480360381019061024c9190611e4f565b610724565b60405161025e9190611e89565b60405180910390f35b610281600480360381019061027c9190611fce565b6107da565b60405161028e9190611e89565b60405180910390f35b61029f6108c4565b6040516102ac9190611c69565b60405180910390f35b6102cf60048036038101906102ca91906120b0565b610954565b005b6102eb60048036038101906102e6919061218c565b61096a565b005b61030760048036038101906103029190611cbc565b61098f565b60405161031592919061220c565b60405180910390f35b61033860048036038101906103339190611cbc565b610abb565b6040516103459190611c69565b60405180910390f35b61036860048036038101906103639190612241565b610bc6565b6040516103759190611be0565b60405180910390f35b5f634906490660e01b7bffffffffffffffffffffffffffffffffffffffffffffffffffffffff1916827bffffffffffffffffffffffffffffffffffffffffffffffffffffffff191614806103d757506103d682610c54565b5b9050919050565b60605f80546103ec906122ac565b80601f0160208091040260200160405190810160405280929190818152602001828054610418906122ac565b80156104635780601f1061043a57610100808354040283529160200191610463565b820191905f5260205f20905b81548152906001019060200180831161044657829003601f168201915b5050505050905090565b5f61047782610d35565b5061048182610dbb565b9050919050565b61049a8282610495610df4565b610dfb565b5050565b5f73ffffffffffffffffffffffffffffffffffffffff168273ffffffffffffffffffffffffffffffffffffffff160361050e575f6040517f64a0ae920000000000000000000000000000000000000000000000000000000081526004016105059190611d26565b60405180910390fd5b5f610521838361051c610df4565b610e0d565b90508373ffffffffffffffffffffffffffffffffffffffff168173ffffffffffffffffffffffffffffffffffffffff1614610597578382826040517f64283d7b00000000000000000000000000000000000000000000000000000000815260040161058e939291906122dc565b60405180910390fd5b50505050565b6060805f60605f60085f8781526020019081526020015f209050805f01816001016105c788610713565b6105d089610abb565b8380546105dc906122ac565b80601f0160208091040260200160405190810160405280929190818152602001828054610608906122ac565b80156106535780601f1061062a57610100808354040283529160200191610653565b820191905f5260205f20905b81548152906001019060200180831161063657829003601f168201915b50505050509350828054610666906122ac565b80601f0160208091040260200160405190810160405280929190818152602001828054610692906122ac565b80156106dd5780601f106106b4576101008083540402835291602001916106dd565b820191905f5260205f20905b8154815290600101906020018083116106c057829003601f168201915b505050505092509450945094509450509193509193565b61070e83838360405180602001604052805f81525061096a565b505050565b5f61071d82610d35565b9050919050565b5f5f73ffffffffffffffffffffffffffffffffffffffff168273ffffffffffffffffffffffffffffffffffffffff1603610795575f6040517f89c62b6400000000000000000000000000000000000000000000000000000000815260040161078c9190611d26565b60405180910390fd5b60035f8373ffffffffffffffffffffffffffffffffffffffff1673ffffffffffffffffffffffffffffffffffffffff1681526020019081526020015f20549050919050565b5f60075f8154809291906107ed9061233e565b91905055505f60075490506108028682611018565b5f85511115610816576108158186611035565b5b60405180604001604052808581526020018481525060085f8381526020019081526020015f205f820151815f01908161084f9190612525565b5060208201518160010190816108659190612525565b50905050808673ffffffffffffffffffffffffffffffffffffffff167f9aad673c07866c8b5f7049a3b0a7e8091c80c3685b33244faf2bb621f050fdd7866040516108b09190611c69565b60405180910390a380915050949350505050565b6060600180546108d3906122ac565b80601f01602080910402602001604051908101604052809291908181526020018280546108ff906122ac565b801561094a5780601f106109215761010080835404028352916020019161094a565b820191905f5260205f20905b81548152906001019060200180831161092d57829003601f168201915b5050505050905090565b61096661095f610df4565b838361108f565b5050565b61097584848461049e565b610989610980610df4565b858585856111f8565b50505050565b6008602052805f5260405f205f91509050805f0180546109ae906122ac565b80601f01602080910402602001604051908101604052809291908181526020018280546109da906122ac565b8015610a255780601f106109fc57610100808354040283529160200191610a25565b820191905f5260205f20905b815481529060010190602001808311610a0857829003601f168201915b505050505090806001018054610a3a906122ac565b80601f0160208091040260200160405190810160405280929190818152602001828054610a66906122ac565b8015610ab15780601f10610a8857610100808354040283529160200191610ab1565b820191905f5260205f20905b815481529060010190602001808311610a9457829003601f168201915b5050505050905082565b6060610ac682610d35565b505f60065f8481526020019081526020015f208054610ae4906122ac565b80601f0160208091040260200160405190810160405280929190818152602001828054610b10906122ac565b8015610b5b5780601f10610b3257610100808354040283529160200191610b5b565b820191905f5260205f20905b815481529060010190602001808311610b3e57829003601f168201915b505050505090505f610b6b6113a4565b90505f815103610b7f578192505050610bc1565b5f82511115610bb3578082604051602001610b9b92919061262e565b60405160208183030381529060405292505050610bc1565b610bbc846113ba565b925050505b919050565b5f60055f8473ffffffffffffffffffffffffffffffffffffffff1673ffffffffffffffffffffffffffffffffffffffff1681526020019081526020015f205f8373ffffffffffffffffffffffffffffffffffffffff1673ffffffffffffffffffffffffffffffffffffffff1681526020019081526020015f205f9054906101000a900460ff16905092915050565b5f7f80ac58cd000000000000000000000000000000000000000000000000000000007bffffffffffffffffffffffffffffffffffffffffffffffffffffffff1916827bffffffffffffffffffffffffffffffffffffffffffffffffffffffff19161480610d1e57507f5b5e139f000000000000000000000000000000000000000000000000000000007bffffffffffffffffffffffffffffffffffffffffffffffffffffffff1916827bffffffffffffffffffffffffffffffffffffffffffffffffffffffff1916145b80610d2e5750610d2d82611420565b5b9050919050565b5f5f610d4083611489565b90505f73ffffffffffffffffffffffffffffffffffffffff168173ffffffffffffffffffffffffffffffffffffffff1603610db257826040517f7e273289000000000000000000000000000000000000000000000000000000008152600401610da99190611e89565b60405180910390fd5b80915050919050565b5f60045f8381526020019081526020015f205f9054906101000a900473ffffffffffffffffffffffffffffffffffffffff169050919050565b5f33905090565b610e0883838360016114c2565b505050565b5f5f610e1884611489565b90505f73ffffffffffffffffffffffffffffffffffffffff168373ffffffffffffffffffffffffffffffffffffffff1614610e5957610e58818486611681565b5b5f73ffffffffffffffffffffffffffffffffffffffff168173ffffffffffffffffffffffffffffffffffffffff1614610ee457610e985f855f5f6114c2565b600160035f8373ffffffffffffffffffffffffffffffffffffffff1673ffffffffffffffffffffffffffffffffffffffff1681526020019081526020015f205f82825403925050819055505b5f73ffffffffffffffffffffffffffffffffffffffff168573ffffffffffffffffffffffffffffffffffffffff1614610f6357600160035f8773ffffffffffffffffffffffffffffffffffffffff1673ffffffffffffffffffffffffffffffffffffffff1681526020019081526020015f205f82825401925050819055505b8460025f8681526020019081526020015f205f6101000a81548173ffffffffffffffffffffffffffffffffffffffff021916908373ffffffffffffffffffffffffffffffffffffffff160217905550838573ffffffffffffffffffffffffffffffffffffffff168273ffffffffffffffffffffffffffffffffffffffff167fddf252ad1be2c89b69c2b068fc378daa952ba7f163c4a11628f55a4df523b3ef60405160405180910390a4809150509392505050565b611031828260405180602001604052805f815250611744565b5050565b8060065f8481526020019081526020015f2090816110539190612525565b507ff8e1a15aba9398e019f0b49df1a4fde98ee17ae345cb5f6b5e2c27f5033e8ce7826040516110839190611e89565b60405180910390a15050565b5f73ffffffffffffffffffffffffffffffffffffffff168273ffffffffffffffffffffffffffffffffffffffff16036110ff57816040517f5b08ba180000000000000000000000000000000000000000000000000000000081526004016110f69190611d26565b60405180910390fd5b8060055f8573ffffffffffffffffffffffffffffffffffffffff1673ffffffffffffffffffffffffffffffffffffffff1681526020019081526020015f205f8473ffffffffffffffffffffffffffffffffffffffff1673ffffffffffffffffffffffffffffffffffffffff1681526020019081526020015f205f6101000a81548160ff0219169083151502179055508173ffffffffffffffffffffffffffffffffffffffff168373ffffffffffffffffffffffffffffffffffffffff167f17307eab39ab6107e8899845ad3d59bd9653f200f220920489ca2b5937696c31836040516111eb9190611be0565b60405180910390a3505050565b5f8373ffffffffffffffffffffffffffffffffffffffff163b111561139d578273ffffffffffffffffffffffffffffffffffffffff1663150b7a02868685856040518563ffffffff1660e01b815260040161125694939291906126a3565b6020604051808303815f875af192505050801561129157506040513d601f19601f8201168201806040525081019061128e9190612701565b60015b611312573d805f81146112bf576040519150601f19603f3d011682016040523d82523d5f602084013e6112c4565b606091505b505f81510361130a57836040517f64a0ae920000000000000000000000000000000000000000000000000000000081526004016113019190611d26565b60405180910390fd5b805160208201fd5b63150b7a0260e01b7bffffffffffffffffffffffffffffffffffffffffffffffffffffffff1916817bffffffffffffffffffffffffffffffffffffffffffffffffffffffff19161461139b57836040517f64a0ae920000000000000000000000000000000000000000000000000000000081526004016113929190611d26565b60405180910390fd5b505b5050505050565b606060405180602001604052805f815250905090565b60606113c582610d35565b505f6113cf6113a4565b90505f8151116113ed5760405180602001604052805f815250611418565b806113f784611767565b60405160200161140892919061262e565b6040516020818303038152906040525b915050919050565b5f7f01ffc9a7000000000000000000000000000000000000000000000000000000007bffffffffffffffffffffffffffffffffffffffffffffffffffffffff1916827bffffffffffffffffffffffffffffffffffffffffffffffffffffffff1916149050919050565b5f60025f8381526020019081526020015f205f9054906101000a900473ffffffffffffffffffffffffffffffffffffffff169050919050565b80806114fa57505f73ffffffffffffffffffffffffffffffffffffffff168273ffffffffffffffffffffffffffffffffffffffff1614155b1561162c575f61150984610d35565b90505f73ffffffffffffffffffffffffffffffffffffffff168373ffffffffffffffffffffffffffffffffffffffff161415801561157357508273ffffffffffffffffffffffffffffffffffffffff168173ffffffffffffffffffffffffffffffffffffffff1614155b801561158657506115848184610bc6565b155b156115c857826040517fa9fbf51f0000000000000000000000000000000000000000000000000000000081526004016115bf9190611d26565b60405180910390fd5b811561162a57838573ffffffffffffffffffffffffffffffffffffffff168273ffffffffffffffffffffffffffffffffffffffff167f8c5be1e5ebec7d5bd14f71427d1e84f3dd0314c0f7b2291e5b200ac8c7c3b92560405160405180910390a45b505b8360045f8581526020019081526020015f205f6101000a81548173ffffffffffffffffffffffffffffffffffffffff021916908373ffffffffffffffffffffffffffffffffffffffff16021790555050505050565b61168c838383611831565b61173f575f73ffffffffffffffffffffffffffffffffffffffff168373ffffffffffffffffffffffffffffffffffffffff160361170057806040517f7e2732890000000000000000000000000000000000000000000000000000000081526004016116f79190611e89565b60405180910390fd5b81816040517f177e802f00000000000000000000000000000000000000000000000000000000815260040161173692919061272c565b60405180910390fd5b505050565b61174e83836118f1565b611762611759610df4565b5f8585856111f8565b505050565b60605f6001611775846119e4565b0190505f8167ffffffffffffffff81111561179357611792611eaa565b5b6040519080825280601f01601f1916602001820160405280156117c55781602001600182028036833780820191505090505b5090505f82602083010190505b600115611826578080600190039150507f3031323334353637383961626364656600000000000000000000000000000000600a86061a8153600a858161181b5761181a612753565b5b0494505f85036117d2575b819350505050919050565b5f5f73ffffffffffffffffffffffffffffffffffffffff168373ffffffffffffffffffffffffffffffffffffffff16141580156118e857508273ffffffffffffffffffffffffffffffffffffffff168473ffffffffffffffffffffffffffffffffffffffff1614806118a957506118a88484610bc6565b5b806118e757508273ffffffffffffffffffffffffffffffffffffffff166118cf83610dbb565b73ffffffffffffffffffffffffffffffffffffffff16145b5b90509392505050565b5f73ffffffffffffffffffffffffffffffffffffffff168273ffffffffffffffffffffffffffffffffffffffff1603611961575f6040517f64a0ae920000000000000000000000000000000000000000000000000000000081526004016119589190611d26565b60405180910390fd5b5f61196d83835f610e0d565b90505f73ffffffffffffffffffffffffffffffffffffffff168173ffffffffffffffffffffffffffffffffffffffff16146119df575f6040517f73c6ac6e0000000000000000000000000000000000000000000000000000000081526004016119d69190611d26565b60405180910390fd5b505050565b5f5f5f90507a184f03e93ff9f4daa797ed6e38ed64bf6a1f0100000000000000008310611a40577a184f03e93ff9f4daa797ed6e38ed64bf6a1f0100000000000000008381611a3657611a35612753565b5b0492506040810190505b6d04ee2d6d415b85acef81000000008310611a7d576d04ee2d6d415b85acef81000000008381611a7357611a72612753565b5b0492506020810190505b662386f26fc100008310611aac57662386f26fc100008381611aa257611aa1612753565b5b0492506010810190505b6305f5e1008310611ad5576305f5e1008381611acb57611aca612753565b5b0492506008810190505b6127108310611afa576127108381611af057611aef612753565b5b0492506004810190505b60648310611b1d5760648381611b1357611b12612753565b5b0492506002810190505b600a8310611b2c576001810190505b80915050919050565b5f604051905090565b5f5ffd5b5f5ffd5b5f7fffffffff0000000000000000000000000000000000000000000000000000000082169050919050565b611b7a81611b46565b8114611b84575f5ffd5b50565b5f81359050611b9581611b71565b92915050565b5f60208284031215611bb057611baf611b3e565b5b5f611bbd84828501611b87565b91505092915050565b5f8115159050919050565b611bda81611bc6565b82525050565b5f602082019050611bf35f830184611bd1565b92915050565b5f81519050919050565b5f82825260208201905092915050565b8281835e5f83830152505050565b5f601f19601f8301169050919050565b5f611c3b82611bf9565b611c458185611c03565b9350611c55818560208601611c13565b611c5e81611c21565b840191505092915050565b5f6020820190508181035f830152611c818184611c31565b905092915050565b5f819050919050565b611c9b81611c89565b8114611ca5575f5ffd5b50565b5f81359050611cb681611c92565b92915050565b5f60208284031215611cd157611cd0611b3e565b5b5f611cde84828501611ca8565b91505092915050565b5f73ffffffffffffffffffffffffffffffffffffffff82169050919050565b5f611d1082611ce7565b9050919050565b611d2081611d06565b82525050565b5f602082019050611d395f830184611d17565b92915050565b611d4881611d06565b8114611d52575f5ffd5b50565b5f81359050611d6381611d3f565b92915050565b5f5f60408385031215611d7f57611d7e611b3e565b5b5f611d8c85828601611d55565b9250506020611d9d85828601611ca8565b9150509250929050565b5f5f5f60608486031215611dbe57611dbd611b3e565b5b5f611dcb86828701611d55565b9350506020611ddc86828701611d55565b9250506040611ded86828701611ca8565b9150509250925092565b5f6080820190508181035f830152611e0f8187611c31565b90508181036020830152611e238186611c31565b9050611e326040830185611d17565b8181036060830152611e448184611c31565b905095945050505050565b5f60208284031215611e6457611e63611b3e565b5b5f611e7184828501611d55565b91505092915050565b611e8381611c89565b82525050565b5f602082019050611e9c5f830184611e7a565b92915050565b5f5ffd5b5f5ffd5b7f4e487b71000000000000000000000000000000000000000000000000000000005f52604160045260245ffd5b611ee082611c21565b810181811067ffffffffffffffff82111715611eff57611efe611eaa565b5b80604052505050565b5f611f11611b35565b9050611f1d8282611ed7565b919050565b5f67ffffffffffffffff821115611f3c57611f3b611eaa565b5b611f4582611c21565b9050602081019050919050565b828183375f83830152505050565b5f611f72611f6d84611f22565b611f08565b905082815260208101848484011115611f8e57611f8d611ea6565b5b611f99848285611f52565b509392505050565b5f82601f830112611fb557611fb4611ea2565b5b8135611fc5848260208601611f60565b91505092915050565b5f5f5f5f60808587031215611fe657611fe5611b3e565b5b5f611ff387828801611d55565b945050602085013567ffffffffffffffff81111561201457612013611b42565b5b61202087828801611fa1565b935050604085013567ffffffffffffffff81111561204157612040611b42565b5b61204d87828801611fa1565b925050606085013567ffffffffffffffff81111561206e5761206d611b42565b5b61207a87828801611fa1565b91505092959194509250565b61208f81611bc6565b8114612099575f5ffd5b50565b5f813590506120aa81612086565b92915050565b5f5f604083850312156120c6576120c5611b3e565b5b5f6120d385828601611d55565b92505060206120e48582860161209c565b9150509250929050565b5f67ffffffffffffffff82111561210857612107611eaa565b5b61211182611c21565b9050602081019050919050565b5f61213061212b846120ee565b611f08565b90508281526020810184848401111561214c5761214b611ea6565b5b612157848285611f52565b509392505050565b5f82601f83011261217357612172611ea2565b5b813561218384826020860161211e565b91505092915050565b5f5f5f5f608085870312156121a4576121a3611b3e565b5b5f6121b187828801611d55565b94505060206121c287828801611d55565b93505060406121d387828801611ca8565b925050606085013567ffffffffffffffff8111156121f4576121f3611b42565b5b6122008782880161215f565b91505092959194509250565b5f6040820190508181035f8301526122248185611c31565b905081810360208301526122388184611c31565b90509392505050565b5f5f6040838503121561225757612256611b3e565b5b5f61226485828601611d55565b925050602061227585828601611d55565b9150509250929050565b7f4e487b71000000000000000000000000000000000000000000000000000000005f52602260045260245ffd5b5f60028204905060018216806122c357607f821691505b6020821081036122d6576122d561227f565b5b50919050565b5f6060820190506122ef5f830186611d17565b6122fc6020830185611e7a565b6123096040830184611d17565b949350505050565b7f4e487b71000000000000000000000000000000000000000000000000000000005f52601160045260245ffd5b5f61234882611c89565b91507fffffffffffffffffffffffffffffffffffffffffffffffffffffffffffffffff820361237a57612379612311565b5b600182019050919050565b5f819050815f5260205f209050919050565b5f6020601f8301049050919050565b5f82821b905092915050565b5f600883026123e17fffffffffffffffffffffffffffffffffffffffffffffffffffffffffffffffff826123a6565b6123eb86836123a6565b95508019841693508086168417925050509392505050565b5f819050919050565b5f61242661242161241c84611c89565b612403565b611c89565b9050919050565b5f819050919050565b61243f8361240c565b61245361244b8261242d565b8484546123b2565b825550505050565b5f5f905090565b61246a61245b565b612475818484612436565b505050565b5b818110156124985761248d5f82612462565b60018101905061247b565b5050565b601f8211156124dd576124ae81612385565b6124b784612397565b810160208510156124c6578190505b6124da6124d285612397565b83018261247a565b50505b505050565b5f82821c905092915050565b5f6124fd5f19846008026124e2565b1980831691505092915050565b5f61251583836124ee565b9150826002028217905092915050565b61252e82611bf9565b67ffffffffffffffff81111561254757612546611eaa565b5b61255182546122ac565b61255c82828561249c565b5f60209050601f83116001811461258d575f841561257b578287015190505b612585858261250a565b8655506125ec565b601f19841661259b86612385565b5f5b828110156125c25784890151825560018201915060208501945060208101905061259d565b868310156125df57848901516125db601f8916826124ee565b8355505b6001600288020188555050505b505050505050565b5f81905092915050565b5f61260882611bf9565b61261281856125f4565b9350612622818560208601611c13565b80840191505092915050565b5f61263982856125fe565b915061264582846125fe565b91508190509392505050565b5f81519050919050565b5f82825260208201905092915050565b5f61267582612651565b61267f818561265b565b935061268f818560208601611c13565b61269881611c21565b840191505092915050565b5f6080820190506126b65f830187611d17565b6126c36020830186611d17565b6126d06040830185611e7a565b81810360608301526126e2818461266b565b905095945050505050565b5f815190506126fb81611b71565b92915050565b5f6020828403121561271657612715611b3e565b5b5f612723848285016126ed565b91505092915050565b5f60408201905061273f5f830185611d17565b61274c6020830184611e7a565b9392505050565b7f4e487b71000000000000000000000000000000000000000000000000000000005f52601260045260245ffdfea264697066735822122032935772fb3a6546eaa6036a33bddab921f79131a6d01325c079678051c5185664736f6c634300081e0033","linkReferences":{}},"methodIdentifiers":{"approve(address,uint256)":"095ea7b3","balanceOf(address)":"70a08231","getApproved(uint256)":"081812fc","getItem(uint256)":"3129e773","isApprovedForAll(address,address)":"e985e9c5","items(uint256)":"bfb231d2","mintItemTo(address,string,string,string)":"933e8858","name()":"06fdde03","ownerOf(uint256)":"6352211e","safeTransferFrom(address,address,uint256)":"42842e0e","safeTransferFrom(address,address,uint256,bytes)":"b88d4fde","setApprovalForAll(address,bool)":"a22cb465","supportsInterface(bytes4)":"01ffc9a7","symbol()":"95d89b41","tokenURI(uint256)":"c87b56dd","transferFrom(address,address,uint256)":"23b872dd"},"id":47}